:100A3A002D2D494E464F313A3132333435362D2D2C
:100A4A00002D2D494E464F323A3635343332312D48
:020A5A002D006D
:04050300021D0000D5
:10071700E4F5081209C6120A5C1209EF1209267FCE
:1007270001120AB67F02120AB6C293D2AF7BFF7AD2
:100737000A793A7D017F011209927BFF7A0A794B88
:100747007D017F0212099230000AC2009000CAE0C0
:10075700FF120A152002F0E5266508601BAF0805A1
:10076700087E00EF543F2400F582EE3400F583E065
:0F0777009000CCF0D20280DFE4F526F50880C8B0
:0808E7008B298A2A892B8D2C34
:1008EF00E4F52DF52EC3E52E952CE52D9400502221
:1008FF00AB29AA2AA92B120026FF120A157401256B
:10090F002BF52BE4352AF52A052EE52E70D7052D6C
:06091F0080D3E52470FC0A
:0109250022AF
:1009C600750940750A02E4F50E750D4BF50CF50B2D
:1009D600751001F511751201F513751440F515FB27
:0909E6007A0079097F0102021078
:100A5C00E4F509F50A750B01F50C750D01750E031E
:0F0A6C00750FE8751001FB7A007909FF0203AEE0
:0F0AE1007DA57C06ED1D70011C144C70F7DFF134
:010AF00022E3
:100ACF00E4FFFE30A70B0FBF00010EBE13F5BF886A
:010ADF00F224
:010AE00022F3
:10095E00C2918FA000000000000000000000000007
:10096E000000000000000000D29000000000000017
:10097E000000000000000000000000000000C29017
:04098E0075A0FF222F
:10084B00AD07C292D29175A0FF000000000000001E
:10085B0000000000000000000000000000D2901219
:10086B000ACFC290C2918DA00000000000000000D2
:10087B00000000000000000000000000D29000000B
:10088B00000000000000000000000000000000005D
:08089B000000C29075A0FF22CD
:1007F100AD07C292D29175A0FF0000000000000079
:1008010000000000000000000000000000D2901273
:100811000ACFC290C291D2928DA0000000000000C8
:100821000000000000000000000000000000D29065
:1008310000000000000000000000000000000000B7
:0A08410000000000C29075A0FF2225
:10092600C290C292C2917F64120AE17F3012095EC0
:100936007F0A120AE17F3012095E7F0A120AE17FFE
:100946003812095E7F06120AE17F0112084B7F0604
:0809560012084B7F0C02084B54
:100A9A00AC05AB07BB0108EC144480FF12084BBB42
:0C0AAA000209EC243F4480FF12084B229C
:100AB600EF6015D3940250107D01120A9AE4FC7F70
:080AC600201207F10CBC10F72F
:010ACE002205
:100A7B00AE07AA03EE6017D394025012ED600FD3AA
:0F0A8B009410500AAF06120A9AAF021207F12216
:100992008F098D0A8B0B8A0C890DAB0BAA0CA90D42
:1009A200120026FB601DAD0AAF09120A7B050AE59B
:1009B2000AD39414500D7401250DF50DE4350CF590
:0409C2000C80D722AC
:060210008B168A17891805
:10021600EF640160030203AB752101F522F523F5B6
:1002260024F525F526F527F5287F64900064E4F08B
:10023600A3DFFC7F64900000E4F0A3DFFCAB16AA0A
:1002460017A918120026D394C040037F02229000FB
:100256000A12003FB40104D2BC8002C2BC120026BE
:10026600FFE598543F4FF598EF64C06008EF64408F
:10027600600302032F9000021201AA7F007E607DB8
:10028600547C001200E08F1C8E1B8D1A8C19E4FF23
:10029600FE7D01FCAB1CAA1BA91AA819C312017288
:1002A60040037F0222C3E4951CF51CE4951BF51B55
:1002B6007401951AF51AE49519F519AB16AA17A93A
:1002C6001890000112003FFB6401702CC28E538E01
:1002D600FE5389BF5389CF438E40AF1CAE1BAD1A68
:1002E600AC1978081201838F8D851C8BC2AB53899C
:1002F600BF538FFDD28E8065EB64027029538EEF5B
:10030600438E01538EF7438E04AF1CAE1BAD1AAC61
:100316001978081201838FD6851CD753AFFB538EED
:10032600F7438E1080377F0222AB16AA17A9181240
:100336000026FF701390000812003FB40105438E9B
:1003460020801A538EDF8015EFB4801190000812BA
:10035600003FB40105438780800353877FAB16AA0D
:1003660017A91890000912003FB40104D2AC80020C
:10037600C2AC90000712003FB40104D29C8002C2B6
:100386009C90000B12003F54C0FFE5A2543F4FF56E
:10039600A290000C12003FB401054397108003534E
:0703A60097EF7F00227F02A8
:0103AD00222D
:100A150074642523F582E43400F583EFF00524059D
:100A250023E523C394644003E4F523E525700575A8
:050A35002501D2992209
:10000E00120026FF600C120A15740129F9E43AFA5F
:03001E0080EE224F
:030023000207864B
:10078600C0E0C083C082C0D075D000C007309824B6
:10079600C298E528701EE526C394644003752600BA
:1007A600AF26052674002FF582E43400F583E5991B
:1007B600F0752705309929C299E5226523601E74D4
:1007C600642522F582E43400F583E0F599152405C5
:1007D60022E522C394644008752200800375250033
:0B07E600D007D0D0D082D083D0E0320A
:1003AE008B118A128913EFD3940240037F0122EF3F
:1003BE006003020500C28CAB11AA12A913900002B1
:1003CE0012003FB40104D2A98002C2A9900001120A
:1003DE00003FB40104D2B98002C2B9120026FED386
:1003EE00940340037F0222E58954FC4EF589900068
:1003FE000312003FFFB40103538E7FEF7003438E51
:10040E0080EFB4020543890480035389FBAB11AA24
:10041E0012A91390000412003FB40105438F01800E
:10042E0003538FFE90000312003F7052900005128E
:10043E00006CAEF0FBAA06E4F9F8FF7E807D517CDD
:10044E00011208A3C374FF9FF58AAB11AA12A91358
:10045E0090000512006CAEF0FBAA06E4F9F8FF7EE0
:10046E00807D517C011208A3C374FF9FFF74FF9E11
:10047E00FEE49DFDE49CFC78081201968F8CAB1176
:10048E00AA12A91390000312003F6401705090004D
:10049E000512006CAEF0FBAA06E4F9F8FF7E207D93
:1004AE001CFC1208A3C374FF9FF58AAB11AA12A9F4
:1004BE001390000512006CAEF0FBAA06E4F9F8FFEB
:1004CE007E207D1CFC1208A3C374FF9FFF74FF9E49
:1004DE00FEE49DFDE49CFC78081201968F8CAB1116
:1004EE00AA12A91390000712003FB40102D28C7F0A
:0504FE0000227F022234
:100507000A9302000A000000F3FFFFFF089D0300A3
:10051700A900000053FF0A4153000A000000A2FF90
:10052700FFFF085D52005E0000004FFF0A6565008F
:100537000A00000090FFFFFF087964000E01000029
:100547008DFE0AE66A000A0000008BFFFFFF0839EC
:1005570069004D01000049FF0A2F6C000A000000E6
:1005670089FFFFFF084B6B001200000082FF0AA5FE
:1005770066000A0000008FFFFFFF14B96300140034
:10058700000088FF0000E8030000C80000004FF8E3
:100597000AAF68000A0000008DFFFFFF08CD670063
:1005A7004B0000004DFE0A6F62000A00000093FF37
:1005B700FFFF088B61000B00000093FE0AD5460081
:1005C7000A000000AFFFFFFF07DF4700320000000F
:1005D700860A536F470A00000086FFFFFF0A81055E
:0905E700000A000000F0FFFFFF14
:1009EF00538EFD438E805389FB5389FC758CFE75A6
:1009FF008A80D2A9D28CC202C201C200E49000CF79
:060A0F00F09000CEF02281
:03000B000205F1FA
:1005F100C0E0C083C082C0D075D000C007300131D7
:100601009000CEE014F0703A7403F09000CBE01447
:10061100F0700E9000C8E09000CAF0C201D20080D4
:10062100219000C8E0C313F030B017E04480F0809F
:100631001120B00ED2019000CE7404F09000CB7462
:1006410009F030023A9000CFE014F070327403F0F8
:100651009000CDE07012C2B19000CCE09000C9F0E2
:100661009000CD7409F080179000CDE014F0700671
:10067100D2B1C20280099000C9E0C313F092B1D097
:0A06810007D0D0D082D083D0E03241
:0300000002068B6A
:0C068B00787FE4F6D8FD7581EF0206D2FE
:10002600BB010689828A83E0225002E722BBFE02D8
:09003600E32289828A83E493220B
:10003F00BB010CE58229F582E5833AF583E0225076
:10004F0006E92582F8E622BBFE06E92582F8E222C0
:0D005F00E58229F582E5833AF583E49322DA
:10006C00BB0110E58229F582E5833AF583E0F5F0D2
:10007C00A3E0225009E92582F886F008E622BBFEAF
:10008C000AE92582F8E2F5F008E222E5832AF583F5
:08009C00E993F5F0A3E99322BA
:1000A40075F008758200EF2FFFEE33FECD33CDCC13
:1000B40033CCC58233C5829BED9AEC99E582984096
:1000C4000CF582EE9BFEED9AFDEC99FC0FD5F0D673
:1000D400E4CEFBE4CDFAE4CCF9A88222B800C1B99D
:1000E4000059BA002DEC8BF084CFCECDFCE5F0CBDB
:1000F400F97818EF2FFFEE33FEED33FDEC33FCEB14
:1001040033FB10D703994004EB99FB0FD8E5E4F9CE
:10011400FA227818EF2FFFEE33FEED33FDEC33FCBB
:10012400C933C910D7059BE99A4007EC9BFCE99AAF
:10013400F90FD8E0E4C9FAE4CCFB2275F010EF2FF4
:10014400FFEE33FEED33FDCC33CCC833C810D707F4
:100154009BEC9AE899400AED9BFDEC9AFCE899F82F
:0E0164000FD5F0DAE4CDFBE4CCFAE4C8F922C2
:1008A300C2D5E830E70FB2D5E4C39BFBE49AFAE480
:1008B30099F9E498F8EC30E717B2D51208D9120089
:1008C300E0E4C39BFBE49AFAE499F9E498F8800323
:1008D3001200E030D50DE4C39FFFE49EFEE49DFDCE
:0408E300E49CFC2273
:10017200EB9FF5F0EA9E42F0E99D42F0E89C45F0E3
:01018200225A
:10018300E8600FECC313FCED13FDEE13FEEF13FF5A
:03019300D8F1227E
:10019600E86010ECA2E713FCED13FDEE13FEEF137F
:0401A600FFD8F0226C
:1001AA00BB010DE58229F582E5833AF5830201E771
:1001BA005007E92582F80201DABBFE07E92582F831
:1001CA000201F3E58229F582E5833AF5830202000A
:10069700020717E493A3F8E493A34003F68001F25B
:1006A70008DFF48029E493A3F85407240CC8C33364
:1006B700C4540F4420C8834004F456800146F6DF33
:1006C700E4800B0102040810204080900503E47EBB
:1006D700019360BCA3FF543F30E509541FFEE49328
:1006E700A360010ECF54C025E060A840B8E493A3EF
:1006F700FAE493A3F8E493A3C8C582C8CAC583CA1A
:10070700F0A3C8C582C8CAC583CADFE9DEE780BED1
:0105F000000A
:0D01DA00E6FB08E6F908E6FA08E6CBF82295
:0C01E700E0F8A3E0F9A3E0FAA3E0FB229B
:0D01F300E2FB08E2F908E2FA08E2CBF8228C
:10020000E493F8740193F9740293FA740393FB2254
:00000001FF
